{
  "_format": "hh-sol-artifact-1",
  "contractName": "GuessingGame",
  "sourceName": "contracts/GuessingGame.sol",
  "abi": [
    {
      "inputs": [
        {
          "internalType": "uint256",
          "name": "daysAfter",
          "type": "uint256"
        },
        {
          "internalType": "uint256",
          "name": "_playFee",
          "type": "uint256"
        }
      ],
      "stateMutability": "nonpayable",
      "type": "constructor"
    },
    {
      "anonymous": false,
      "inputs": [
        {
          "indexed": true,
          "internalType": "address",
          "name": "previousOwner",
          "type": "address"
        },
        {
          "indexed": true,
          "internalType": "address",
          "name": "newOwner",
          "type": "address"
        }
      ],
      "name": "OwnershipTransferred",
      "type": "event"
    },
    {
      "inputs": [
        {
          "internalType": "address",
          "name": "",
          "type": "address"
        }
      ],
      "name": "balances",
      "outputs": [
        {
          "internalType": "uint256",
          "name": "",
          "type": "uint256"
        }
      ],
      "stateMutability": "view",
      "type": "function"
    },
    {
      "inputs": [],
      "name": "claim",
      "outputs": [],
      "stateMutability": "nonpayable",
      "type": "function"
    },
    {
      "inputs": [],
      "name": "getPlayerCount",
      "outputs": [
        {
          "internalType": "uint256",
          "name": "",
          "type": "uint256"
        }
      ],
      "stateMutability": "view",
      "type": "function"
    },
    {
      "inputs": [
        {
          "internalType": "uint256",
          "name": "numb",
          "type": "uint256"
        }
      ],
      "name": "guessNumber",
      "outputs": [],
      "stateMutability": "payable",
      "type": "function"
    },
    {
      "inputs": [
        {
          "internalType": "uint256",
          "name": "",
          "type": "uint256"
        }
      ],
      "name": "guesses",
      "outputs": [
        {
          "internalType": "uint256",
          "name": "guess",
          "type": "uint256"
        },
        {
          "internalType": "address",
          "name": "player",
          "type": "address"
        }
      ],
      "stateMutability": "view",
      "type": "function"
    },
    {
      "inputs": [],
      "name": "nextSession",
      "outputs": [
        {
          "internalType": "uint256",
          "name": "",
          "type": "uint256"
        }
      ],
      "stateMutability": "view",
      "type": "function"
    },
    {
      "inputs": [],
      "name": "owner",
      "outputs": [
        {
          "internalType": "address",
          "name": "",
          "type": "address"
        }
      ],
      "stateMutability": "view",
      "type": "function"
    },
    {
      "inputs": [],
      "name": "playFee",
      "outputs": [
        {
          "internalType": "uint256",
          "name": "",
          "type": "uint256"
        }
      ],
      "stateMutability": "view",
      "type": "function"
    },
    {
      "inputs": [
        {
          "internalType": "bytes32",
          "name": "requestId",
          "type": "bytes32"
        },
        {
          "internalType": "uint256",
          "name": "randomness",
          "type": "uint256"
        }
      ],
      "name": "rawFulfillRandomness",
      "outputs": [],
      "stateMutability": "nonpayable",
      "type": "function"
    },
    {
      "inputs": [],
      "name": "renounceOwnership",
      "outputs": [],
      "stateMutability": "nonpayable",
      "type": "function"
    },
    {
      "inputs": [
        {
          "internalType": "uint256",
          "name": "_playFee",
          "type": "uint256"
        }
      ],
      "name": "setPlayFee",
      "outputs": [],
      "stateMutability": "nonpayable",
      "type": "function"
    },
    {
      "inputs": [
        {
          "internalType": "uint256",
          "name": "xday",
          "type": "uint256"
        }
      ],
      "name": "setTimeBetween",
      "outputs": [],
      "stateMutability": "nonpayable",
      "type": "function"
    },
    {
      "inputs": [],
      "name": "startSession",
      "outputs": [
        {
          "internalType": "bytes32",
          "name": "requestId",
          "type": "bytes32"
        }
      ],
      "stateMutability": "nonpayable",
      "type": "function"
    },
    {
      "inputs": [],
      "name": "timeBetween",
      "outputs": [
        {
          "internalType": "uint256",
          "name": "",
          "type": "uint256"
        }
      ],
      "stateMutability": "view",
      "type": "function"
    },
    {
      "inputs": [
        {
          "internalType": "address",
          "name": "newOwner",
          "type": "address"
        }
      ],
      "name": "transferOwnership",
      "outputs": [],
      "stateMutability": "nonpayable",
      "type": "function"
    }
  ],
  "bytecode": "0x60c06040526000600560006101000a81548163ffffffff021916908363ffffffff1602179055503480156200003357600080fd5b506040516200216c3803806200216c833981810160405281019062000059919062000244565b73dd3782915140c8f3b190b5d67eac6dc5760c46e973a36085f69e2889c224210f603d836748e7dc00888173ffffffffffffffffffffffffffffffffffffffff1660a08173ffffffffffffffffffffffffffffffffffffffff1660601b815250508073ffffffffffffffffffffffffffffffffffffffff1660808173ffffffffffffffffffffffffffffffffffffffff1660601b81525050505062000113620001076200015f60201b60201c565b6200016760201b60201c565b607882620001229190620002e2565b426200012f919062000285565b60028190555081600381905550662386f26fc1000081620001519190620002e2565b600481905550505062000396565b600033905090565b6000600160009054906101000a900473ffffffffffffffffffffffffffffffffffffffff16905081600160006101000a81548173ffffffffffffffffffffffffffffffffffffffff021916908373ffffffffffffffffffffffffffffffffffffffff1602179055508173ffffffffffffffffffffffffffffffffffffffff168173ffffffffffffffffffffffffffffffffffffffff167f8be0079c531659141344cd1fd0a4f28419497f9722a3daafe3b4186f6b6457e060405160405180910390a35050565b6000815190506200023e816200037c565b92915050565b600080604083850312156200025857600080fd5b600062000268858286016200022d565b92505060206200027b858286016200022d565b9150509250929050565b6000620002928262000343565b91506200029f8362000343565b9250827fffffffffffffffffffffffffffffffffffffffffffffffffffffffffffffffff03821115620002d757620002d66200034d565b5b828201905092915050565b6000620002ef8262000343565b9150620002fc8362000343565b9250817fffffffffffffffffffffffffffffffffffffffffffffffffffffffffffffffff04831182151516156200033857620003376200034d565b5b828202905092915050565b6000819050919050565b7f4e487b7100000000000000000000000000000000000000000000000000000000600052601160045260246000fd5b620003878162000343565b81146200039357600080fd5b50565b60805160601c60a05160601c611d9c620003d0600039600081816106d50152610d4a015260008181610a690152610d0e0152611d9c6000f3fe6080604052600436106100e85760003560e01c80638da5cb5b1161008a578063c55ee28c11610059578063c55ee28c146102ae578063d7f5e81b146102d9578063f2fde38b14610304578063fe0ae1651461032d576100e8565b80638da5cb5b1461021357806394985ddd1461023e578063b438d01814610267578063c2e5220614610283576100e8565b8063283d314a116100c6578063283d314a1461019157806333bc25e9146101bc5780634e71d92d146101e5578063715018a6146101fc576100e8565b80631f491389146100ed57806327e235e31461012b57806327eda7f414610168575b600080fd5b3480156100f957600080fd5b50610114600480360381019061010f919061143e565b610358565b604051610122929190611865565b60405180910390f35b34801561013757600080fd5b50610152600480360381019061014d91906113b0565b6103a2565b60405161015f919061184a565b60405180910390f35b34801561017457600080fd5b5061018f600480360381019061018a919061143e565b6103ba565b005b34801561019d57600080fd5b506101a6610440565b6040516101b3919061184a565b60405180910390f35b3480156101c857600080fd5b506101e360048036038101906101de919061143e565b610446565b005b3480156101f157600080fd5b506101fa6104cc565b005b34801561020857600080fd5b50610211610621565b005b34801561021f57600080fd5b506102286106a9565b6040516102359190611668565b60405180910390f35b34801561024a57600080fd5b5061026560048036038101906102609190611402565b6106d3565b005b610281600480360381019061027c919061143e565b61076f565b005b34801561028f57600080fd5b50610298610938565b6040516102a5919061184a565b60405180910390f35b3480156102ba57600080fd5b506102c3610958565b6040516102d0919061184a565b60405180910390f35b3480156102e557600080fd5b506102ee61095e565b6040516102fb919061184a565b60405180910390f35b34801561031057600080fd5b5061032b600480360381019061032691906113b0565b610964565b005b34801561033957600080fd5b50610342610a5c565b60405161034f91906116c1565b60405180910390f35b600781600a811061036857600080fd5b600202016000915090508060000154908060010160009054906101000a900473ffffffffffffffffffffffffffffffffffffffff16905082565b60066020528060005260406000206000915090505481565b6103c2610bf5565b73ffffffffffffffffffffffffffffffffffffffff166103e06106a9565b73ffffffffffffffffffffffffffffffffffffffff1614610436576040517f08c379a000000000000000000000000000000000000000000000000000000000815260040161042d9061180a565b60405180910390fd5b8060048190555050565b60045481565b61044e610bf5565b73ffffffffffffffffffffffffffffffffffffffff1661046c6106a9565b73ffffffffffffffffffffffffffffffffffffffff16146104c2576040517f08c379a00000000000000000000000000000000000000000000000000000000081526004016104b99061180a565b60405180910390fd5b8060038190555050565b6000600660003373ffffffffffffffffffffffffffffffffffffffff1673ffffffffffffffffffffffffffffffffffffffff168152602001908152602001600020541161054e576040517f08c379a0000000000000000000000000000000000000000000000000000000008152600401610545906117ca565b60405180910390fd5b6000600660003373ffffffffffffffffffffffffffffffffffffffff1673ffffffffffffffffffffffffffffffffffffffff1681526020019081526020016000205490506000600660003373ffffffffffffffffffffffffffffffffffffffff1673ffffffffffffffffffffffffffffffffffffffff168152602001908152602001600020819055503373ffffffffffffffffffffffffffffffffffffffff166108fc829081150290604051600060405180830381858888f1935050505015801561061d573d6000803e3d6000fd5b5050565b610629610bf5565b73ffffffffffffffffffffffffffffffffffffffff166106476106a9565b73ffffffffffffffffffffffffffffffffffffffff161461069d576040517f08c379a00000000000000000000000000000000000000000000000000000000081526004016106949061180a565b60405180910390fd5b6106a76000610bfd565b565b6000600160009054906101000a900473ffffffffffffffffffffffffffffffffffffffff16905090565b7f000000000000000000000000000000000000000000000000000000000000000073ffffffffffffffffffffffffffffffffffffffff163373ffffffffffffffffffffffffffffffffffffffff1614610761576040517f08c379a00000000000000000000000000000000000000000000000000000000081526004016107589061182a565b60405180910390fd5b61076b8282610cc3565b5050565b600160045461077e919061197c565b34146107bf576040517f08c379a00000000000000000000000000000000000000000000000000000000081526004016107b6906117aa565b60405180910390fd5b600a600560009054906101000a900463ffffffff1663ffffffff161061081a576040517f08c379a00000000000000000000000000000000000000000000000000000000081526004016108119061174a565b60405180910390fd5b600060405180604001604052808381526020013373ffffffffffffffffffffffffffffffffffffffff168152509050806007600560009054906101000a900463ffffffff1663ffffffff16600a811061089c577f4e487b7100000000000000000000000000000000000000000000000000000000600052603260045260246000fd5b600202016000820151816000015560208201518160010160006101000a81548173ffffffffffffffffffffffffffffffffffffffff021916908373ffffffffffffffffffffffffffffffffffffffff1602179055509050506001600560008282829054906101000a900463ffffffff166109169190611911565b92506101000a81548163ffffffff021916908363ffffffff1602179055505050565b6000600560009054906101000a900463ffffffff1663ffffffff16905090565b60025481565b60035481565b61096c610bf5565b73ffffffffffffffffffffffffffffffffffffffff1661098a6106a9565b73ffffffffffffffffffffffffffffffffffffffff16146109e0576040517f08c379a00000000000000000000000000000000000000000000000000000000081526004016109d79061180a565b60405180910390fd5b600073ffffffffffffffffffffffffffffffffffffffff168173ffffffffffffffffffffffffffffffffffffffff161415610a50576040517f08c379a0000000000000000000000000000000000000000000000000000000008152600401610a479061178a565b60405180910390fd5b610a5981610bfd565b50565b600067016345785d8a00007f000000000000000000000000000000000000000000000000000000000000000073ffffffffffffffffffffffffffffffffffffffff166370a08231306040518263ffffffff1660e01b8152600401610ac09190611668565b60206040518083038186803b158015610ad857600080fd5b505afa158015610aec573d6000803e3d6000fd5b505050506040513d601f19601f82011682018060405250810190610b109190611467565b1015610b51576040517f08c379a0000000000000000000000000000000000000000000000000000000008152600401610b48906117ea565b60405180910390fd5b600254421015610b6057600080fd5b6000600560009054906101000a900463ffffffff1663ffffffff1611610bbb576040517f08c379a0000000000000000000000000000000000000000000000000000000008152600401610bb29061176a565b60405180910390fd5b610bf07f6c3699283bda56ad74f6b855546325b68d482e983852a7a82979cc4807b641f460001b67016345785d8a0000610d0a565b905090565b600033905090565b6000600160009054906101000a900473ffffffffffffffffffffffffffffffffffffffff16905081600160006101000a81548173ffffffffffffffffffffffffffffffffffffffff021916908373ffffffffffffffffffffffffffffffffffffffff1602179055508173ffffffffffffffffffffffffffffffffffffffff168173ffffffffffffffffffffffffffffffffffffffff167f8be0079c531659141344cd1fd0a4f28419497f9722a3daafe3b4186f6b6457e060405160405180910390a35050565b60006103e882610cd39190611afc565b9050610cde81610e69565b603c600354610ced919061197c565b60026000828254610cfe91906118bb565b92505081905550505050565b60007f000000000000000000000000000000000000000000000000000000000000000073ffffffffffffffffffffffffffffffffffffffff16634000aea07f000000000000000000000000000000000000000000000000000000000000000084866000604051602001610d7e9291906116dc565b6040516020818303038152906040526040518463ffffffff1660e01b8152600401610dab93929190611683565b602060405180830381600087803b158015610dc557600080fd5b505af1158015610dd9573d6000803e3d6000fd5b505050506040513d601f19601f82011682018060405250810190610dfd91906113d9565b506000610e1f84600030600080898152602001908152602001600020546112a6565b9050600160008086815260200190815260200160002054610e4091906118bb565b60008086815260200190815260200160002081905550610e6084826112e2565b91505092915050565b6000600560009054906101000a900463ffffffff169050600060076000600a8110610ebd577f4e487b7100000000000000000000000000000000000000000000000000000000600052603260045260246000fd5b60020201604051806040016040529081600082015481526020016001820160009054906101000a900473ffffffffffffffffffffffffffffffffffffffff1673ffffffffffffffffffffffffffffffffffffffff1673ffffffffffffffffffffffffffffffffffffffff168152505090506000610f3e826000015185611315565b905060076000600a8110610f7b577f4e487b7100000000000000000000000000000000000000000000000000000000600052603260045260246000fd5b600202016000808201600090556001820160006101000a81549073ffffffffffffffffffffffffffffffffffffffff021916905550506000600190505b8363ffffffff168110156111945781611012600783600a8110611004577f4e487b7100000000000000000000000000000000000000000000000000000000600052603260045260246000fd5b600202016000015487611315565b101561111157600781600a8110611052577f4e487b7100000000000000000000000000000000000000000000000000000000600052603260045260246000fd5b60020201604051806040016040529081600082015481526020016001820160009054906101000a900473ffffffffffffffffffffffffffffffffffffffff1673ffffffffffffffffffffffffffffffffffffffff1673ffffffffffffffffffffffffffffffffffffffff1681525050925061110e600782600a8110611100577f4e487b7100000000000000000000000000000000000000000000000000000000600052603260045260246000fd5b600202016000015486611315565b91505b600781600a811061114b577f4e487b7100000000000000000000000000000000000000000000000000000000600052603260045260246000fd5b600202016000808201600090556001820160006101000a81549073ffffffffffffffffffffffffffffffffffffffff02191690555050808061118c90611a9f565b915050610fb8565b508263ffffffff16606460016004546111ad919061197c565b6111b7919061194b565b6111c1919061197c565b600660006111cd6106a9565b73ffffffffffffffffffffffffffffffffffffffff1673ffffffffffffffffffffffffffffffffffffffff168152602001908152602001600020819055508263ffffffff1660646063600454611223919061197c565b61122d919061194b565b611237919061197c565b60066000846020015173ffffffffffffffffffffffffffffffffffffffff1673ffffffffffffffffffffffffffffffffffffffff168152602001908152602001600020819055506000600560006101000a81548163ffffffff021916908363ffffffff16021790555050505050565b6000848484846040516020016112bf9493929190611705565b6040516020818303038152906040528051906020012060001c9050949350505050565b600082826040516020016112f792919061163c565b60405160208183030381529060405280519060200120905092915050565b60008183111561133257818361132b91906119d6565b9050611341565b828261133e91906119d6565b90505b92915050565b60008135905061135681611d0a565b92915050565b60008151905061136b81611d21565b92915050565b60008135905061138081611d38565b92915050565b60008135905061139581611d4f565b92915050565b6000815190506113aa81611d4f565b92915050565b6000602082840312156113c257600080fd5b60006113d084828501611347565b91505092915050565b6000602082840312156113eb57600080fd5b60006113f98482850161135c565b91505092915050565b6000806040838503121561141557600080fd5b600061142385828601611371565b925050602061143485828601611386565b9150509250929050565b60006020828403121561145057600080fd5b600061145e84828501611386565b91505092915050565b60006020828403121561147957600080fd5b60006114878482850161139b565b91505092915050565b61149981611a0a565b82525050565b6114a881611a28565b82525050565b6114bf6114ba82611a28565b611ae8565b82525050565b60006114d08261188e565b6114da8185611899565b93506114ea818560208601611a6c565b6114f381611b8b565b840191505092915050565b600061150b6010836118aa565b915061151682611b9c565b602082019050919050565b600061152e6011836118aa565b915061153982611bc5565b602082019050919050565b60006115516026836118aa565b915061155c82611bee565b604082019050919050565b6000611574600b836118aa565b915061157f82611c3d565b602082019050919050565b60006115976012836118aa565b91506115a282611c66565b602082019050919050565b60006115ba600f836118aa565b91506115c582611c8f565b602082019050919050565b60006115dd6020836118aa565b91506115e882611cb8565b602082019050919050565b6000611600601f836118aa565b915061160b82611ce1565b602082019050919050565b61161f81611a52565b82525050565b61163661163182611a52565b611af2565b82525050565b600061164882856114ae565b6020820191506116588284611625565b6020820191508190509392505050565b600060208201905061167d6000830184611490565b92915050565b60006060820190506116986000830186611490565b6116a56020830185611616565b81810360408301526116b781846114c5565b9050949350505050565b60006020820190506116d6600083018461149f565b92915050565b60006040820190506116f1600083018561149f565b6116fe6020830184611616565b9392505050565b600060808201905061171a600083018761149f565b6117276020830186611616565b6117346040830185611490565b6117416060830184611616565b95945050505050565b60006020820190508181036000830152611763816114fe565b9050919050565b6000602082019050818103600083015261178381611521565b9050919050565b600060208201905081810360008301526117a381611544565b9050919050565b600060208201905081810360008301526117c381611567565b9050919050565b600060208201905081810360008301526117e38161158a565b9050919050565b60006020820190508181036000830152611803816115ad565b9050919050565b60006020820190508181036000830152611823816115d0565b9050919050565b60006020820190508181036000830152611843816115f3565b9050919050565b600060208201905061185f6000830184611616565b92915050565b600060408201905061187a6000830185611616565b6118876020830184611490565b9392505050565b600081519050919050565b600082825260208201905092915050565b600082825260208201905092915050565b60006118c682611a52565b91506118d183611a52565b9250827fffffffffffffffffffffffffffffffffffffffffffffffffffffffffffffffff0382111561190657611905611b2d565b5b828201905092915050565b600061191c82611a5c565b915061192783611a5c565b92508263ffffffff038211156119405761193f611b2d565b5b828201905092915050565b600061195682611a52565b915061196183611a52565b92508261197157611970611b5c565b5b828204905092915050565b600061198782611a52565b915061199283611a52565b9250817fffffffffffffffffffffffffffffffffffffffffffffffffffffffffffffffff04831182151516156119cb576119ca611b2d565b5b828202905092915050565b60006119e182611a52565b91506119ec83611a52565b9250828210156119ff576119fe611b2d565b5b828203905092915050565b6000611a1582611a32565b9050919050565b60008115159050919050565b6000819050919050565b600073ffffffffffffffffffffffffffffffffffffffff82169050919050565b6000819050919050565b600063ffffffff82169050919050565b60005b83811015611a8a578082015181840152602081019050611a6f565b83811115611a99576000848401525b50505050565b6000611aaa82611a52565b91507fffffffffffffffffffffffffffffffffffffffffffffffffffffffffffffffff821415611add57611adc611b2d565b5b600182019050919050565b6000819050919050565b6000819050919050565b6000611b0782611a52565b9150611b1283611a52565b925082611b2257611b21611b5c565b5b828206905092915050565b7f4e487b7100000000000000000000000000000000000000000000000000000000600052601160045260246000fd5b7f4e487b7100000000000000000000000000000000000000000000000000000000600052601260045260246000fd5b6000601f19601f8301169050919050565b7f313020706c6179657273206c696d697400000000000000000000000000000000600082015250565b7f6e6f20706c6179657273206a6f696e6564000000000000000000000000000000600082015250565b7f4f776e61626c653a206e6577206f776e657220697320746865207a65726f206160008201527f6464726573730000000000000000000000000000000000000000000000000000602082015250565b7f73616473746f727962726f000000000000000000000000000000000000000000600082015250565b7f6e6f2065746820746f2077697468647261770000000000000000000000000000600082015250565b7f4e6f7420656e6f756768204c494e4b0000000000000000000000000000000000600082015250565b7f4f776e61626c653a2063616c6c6572206973206e6f7420746865206f776e6572600082015250565b7f4f6e6c7920565246436f6f7264696e61746f722063616e2066756c66696c6c00600082015250565b611d1381611a0a565b8114611d1e57600080fd5b50565b611d2a81611a1c565b8114611d3557600080fd5b50565b611d4181611a28565b8114611d4c57600080fd5b50565b611d5881611a52565b8114611d6357600080fd5b5056fea2646970667358221220fb78ed12a5e5df2dc21338ba2d05af81c4bb81b7479fbcfdeeaf874affa69bdf64736f6c63430008040033",
  "linkReferences": {},
  "deployedLinkReferences": {}
}