{
  "_format": "hh-sol-artifact-1",
  "contractName": "GuessingGame",
  "sourceName": "contracts/GuessingGame.sol",
  "abi": [
    {
      "inputs": [
        {
          "internalType": "uint256",
          "name": "daysAfter",
          "type": "uint256"
        },
        {
          "internalType": "uint256",
          "name": "_playFee",
          "type": "uint256"
        },
        {
          "internalType": "address",
          "name": "lnktkn",
          "type": "address"
        }
      ],
      "stateMutability": "nonpayable",
      "type": "constructor"
    },
    {
      "anonymous": false,
      "inputs": [
        {
          "indexed": true,
          "internalType": "address",
          "name": "previousOwner",
          "type": "address"
        },
        {
          "indexed": true,
          "internalType": "address",
          "name": "newOwner",
          "type": "address"
        }
      ],
      "name": "OwnershipTransferred",
      "type": "event"
    },
    {
      "inputs": [
        {
          "internalType": "uint256",
          "name": "a",
          "type": "uint256"
        },
        {
          "internalType": "uint256",
          "name": "b",
          "type": "uint256"
        }
      ],
      "name": "_calcDistance",
      "outputs": [
        {
          "internalType": "uint256",
          "name": "",
          "type": "uint256"
        }
      ],
      "stateMutability": "pure",
      "type": "function"
    },
    {
      "inputs": [
        {
          "internalType": "uint256",
          "name": "rand",
          "type": "uint256"
        }
      ],
      "name": "_calcWinner",
      "outputs": [],
      "stateMutability": "nonpayable",
      "type": "function"
    },
    {
      "inputs": [
        {
          "internalType": "address",
          "name": "",
          "type": "address"
        }
      ],
      "name": "balances",
      "outputs": [
        {
          "internalType": "uint256",
          "name": "",
          "type": "uint256"
        }
      ],
      "stateMutability": "view",
      "type": "function"
    },
    {
      "inputs": [],
      "name": "claim",
      "outputs": [],
      "stateMutability": "nonpayable",
      "type": "function"
    },
    {
      "inputs": [],
      "name": "getPlayerCount",
      "outputs": [
        {
          "internalType": "uint256",
          "name": "",
          "type": "uint256"
        }
      ],
      "stateMutability": "view",
      "type": "function"
    },
    {
      "inputs": [
        {
          "internalType": "uint256",
          "name": "numb",
          "type": "uint256"
        }
      ],
      "name": "guessNumber",
      "outputs": [],
      "stateMutability": "payable",
      "type": "function"
    },
    {
      "inputs": [
        {
          "internalType": "uint256",
          "name": "",
          "type": "uint256"
        }
      ],
      "name": "guesses",
      "outputs": [
        {
          "internalType": "uint256",
          "name": "guess",
          "type": "uint256"
        },
        {
          "internalType": "address",
          "name": "player",
          "type": "address"
        }
      ],
      "stateMutability": "view",
      "type": "function"
    },
    {
      "inputs": [],
      "name": "nextSession",
      "outputs": [
        {
          "internalType": "uint256",
          "name": "",
          "type": "uint256"
        }
      ],
      "stateMutability": "view",
      "type": "function"
    },
    {
      "inputs": [],
      "name": "owner",
      "outputs": [
        {
          "internalType": "address",
          "name": "",
          "type": "address"
        }
      ],
      "stateMutability": "view",
      "type": "function"
    },
    {
      "inputs": [],
      "name": "playFee",
      "outputs": [
        {
          "internalType": "uint256",
          "name": "",
          "type": "uint256"
        }
      ],
      "stateMutability": "view",
      "type": "function"
    },
    {
      "inputs": [
        {
          "internalType": "bytes32",
          "name": "requestId",
          "type": "bytes32"
        },
        {
          "internalType": "uint256",
          "name": "randomness",
          "type": "uint256"
        }
      ],
      "name": "rawFulfillRandomness",
      "outputs": [],
      "stateMutability": "nonpayable",
      "type": "function"
    },
    {
      "inputs": [],
      "name": "renounceOwnership",
      "outputs": [],
      "stateMutability": "nonpayable",
      "type": "function"
    },
    {
      "inputs": [
        {
          "internalType": "uint256",
          "name": "_playFee",
          "type": "uint256"
        }
      ],
      "name": "setPlayFee",
      "outputs": [],
      "stateMutability": "nonpayable",
      "type": "function"
    },
    {
      "inputs": [
        {
          "internalType": "uint256",
          "name": "time",
          "type": "uint256"
        }
      ],
      "name": "setTimeBetween",
      "outputs": [],
      "stateMutability": "nonpayable",
      "type": "function"
    },
    {
      "inputs": [],
      "name": "startSession",
      "outputs": [
        {
          "internalType": "bytes32",
          "name": "requestId",
          "type": "bytes32"
        }
      ],
      "stateMutability": "nonpayable",
      "type": "function"
    },
    {
      "inputs": [],
      "name": "timeBetween",
      "outputs": [
        {
          "internalType": "uint256",
          "name": "",
          "type": "uint256"
        }
      ],
      "stateMutability": "view",
      "type": "function"
    },
    {
      "inputs": [
        {
          "internalType": "address",
          "name": "newOwner",
          "type": "address"
        }
      ],
      "name": "transferOwnership",
      "outputs": [],
      "stateMutability": "nonpayable",
      "type": "function"
    }
  ],
  "bytecode": "0x60c06040526000600560006101000a81548163ffffffff021916908363ffffffff1602179055503480156200003357600080fd5b506040516200235938038062002359833981810160405281019062000059919062000248565b73dd3782915140c8f3b190b5d67eac6dc5760c46e9818173ffffffffffffffffffffffffffffffffffffffff1660a08173ffffffffffffffffffffffffffffffffffffffff1660601b815250508073ffffffffffffffffffffffffffffffffffffffff1660808173ffffffffffffffffffffffffffffffffffffffff1660601b815250505050620000ff620000f36200014c60201b60201c565b6200015460201b60201c565b6078836200010e9190620002fb565b426200011b91906200029e565b60028190555082600381905550662386f26fc10000826200013d9190620002fb565b600481905550505050620003fd565b600033905090565b6000600160009054906101000a900473ffffffffffffffffffffffffffffffffffffffff16905081600160006101000a81548173ffffffffffffffffffffffffffffffffffffffff021916908373ffffffffffffffffffffffffffffffffffffffff1602179055508173ffffffffffffffffffffffffffffffffffffffff168173ffffffffffffffffffffffffffffffffffffffff167f8be0079c531659141344cd1fd0a4f28419497f9722a3daafe3b4186f6b6457e060405160405180910390a35050565b6000815190506200022b81620003c9565b92915050565b6000815190506200024281620003e3565b92915050565b6000806000606084860312156200025e57600080fd5b60006200026e8682870162000231565b9350506020620002818682870162000231565b925050604062000294868287016200021a565b9150509250925092565b6000620002ab8262000390565b9150620002b88362000390565b9250827fffffffffffffffffffffffffffffffffffffffffffffffffffffffffffffffff03821115620002f057620002ef6200039a565b5b828201905092915050565b6000620003088262000390565b9150620003158362000390565b9250817fffffffffffffffffffffffffffffffffffffffffffffffffffffffffffffffff04831182151516156200035157620003506200039a565b5b828202905092915050565b6000620003698262000370565b9050919050565b600073ffffffffffffffffffffffffffffffffffffffff82169050919050565b6000819050919050565b7f4e487b7100000000000000000000000000000000000000000000000000000000600052601160045260246000fd5b620003d4816200035c565b8114620003e057600080fd5b50565b620003ee8162000390565b8114620003fa57600080fd5b50565b60805160601c60a05160601c611f2262000437600039600081816107710152611297015260008181610b11015261125b0152611f226000f3fe6080604052600436106100fe5760003560e01c80638da5cb5b11610095578063c55ee28c11610064578063c55ee28c14610301578063c5b781b51461032c578063d7f5e81b14610355578063f2fde38b14610380578063fe0ae165146103a9576100fe565b80638da5cb5b1461026657806394985ddd14610291578063b438d018146102ba578063c2e52206146102d6576100fe565b80632fe04e18116100d15780632fe04e18146101d257806333bc25e91461020f5780634e71d92d14610238578063715018a61461024f576100fe565b80631f4913891461010357806327e235e31461014157806327eda7f41461017e578063283d314a146101a7575b600080fd5b34801561010f57600080fd5b5061012a6004803603810190610125919061151c565b6103d4565b6040516101389291906119c2565b60405180910390f35b34801561014d57600080fd5b506101686004803603810190610163919061148e565b61041e565b60405161017591906119a7565b60405180910390f35b34801561018a57600080fd5b506101a560048036038101906101a0919061151c565b610436565b005b3480156101b357600080fd5b506101bc6104c8565b6040516101c991906119a7565b60405180910390f35b3480156101de57600080fd5b506101f960048036038101906101f4919061156e565b6104ce565b60405161020691906119a7565b60405180910390f35b34801561021b57600080fd5b506102366004803603810190610231919061151c565b6104e2565b005b34801561024457600080fd5b5061024d610568565b005b34801561025b57600080fd5b506102646106bd565b005b34801561027257600080fd5b5061027b610745565b60405161028891906117a5565b60405180910390f35b34801561029d57600080fd5b506102b860048036038101906102b391906114e0565b61076f565b005b6102d460048036038101906102cf919061151c565b61080b565b005b3480156102e257600080fd5b506102eb6109d4565b6040516102f891906119a7565b60405180910390f35b34801561030d57600080fd5b506103166109f4565b60405161032391906119a7565b60405180910390f35b34801561033857600080fd5b50610353600480360381019061034e919061151c565b6109fa565b005b34801561036157600080fd5b5061036a610a06565b60405161037791906119a7565b60405180910390f35b34801561038c57600080fd5b506103a760048036038101906103a2919061148e565b610a0c565b005b3480156103b557600080fd5b506103be610b04565b6040516103cb91906117fe565b60405180910390f35b600781600a81106103e457600080fd5b600202016000915090508060000154908060010160009054906101000a900473ffffffffffffffffffffffffffffffffffffffff16905082565b60066020528060005260406000206000915090505481565b61043e610cd3565b73ffffffffffffffffffffffffffffffffffffffff1661045c610745565b73ffffffffffffffffffffffffffffffffffffffff16146104b2576040517f08c379a00000000000000000000000000000000000000000000000000000000081526004016104a990611947565b60405180910390fd5b6001816104bf9190611ad9565b60048190555050565b60045481565b60006104da8383610cdb565b905092915050565b6104ea610cd3565b73ffffffffffffffffffffffffffffffffffffffff16610508610745565b73ffffffffffffffffffffffffffffffffffffffff161461055e576040517f08c379a000000000000000000000000000000000000000000000000000000000815260040161055590611947565b60405180910390fd5b8060038190555050565b6000600660003373ffffffffffffffffffffffffffffffffffffffff1673ffffffffffffffffffffffffffffffffffffffff16815260200190815260200160002054116105ea576040517f08c379a00000000000000000000000000000000000000000000000000000000081526004016105e190611907565b60405180910390fd5b6000600660003373ffffffffffffffffffffffffffffffffffffffff1673ffffffffffffffffffffffffffffffffffffffff1681526020019081526020016000205490506000600660003373ffffffffffffffffffffffffffffffffffffffff1673ffffffffffffffffffffffffffffffffffffffff168152602001908152602001600020819055503373ffffffffffffffffffffffffffffffffffffffff166108fc829081150290604051600060405180830381858888f193505050501580156106b9573d6000803e3d6000fd5b5050565b6106c5610cd3565b73ffffffffffffffffffffffffffffffffffffffff166106e3610745565b73ffffffffffffffffffffffffffffffffffffffff1614610739576040517f08c379a000000000000000000000000000000000000000000000000000000000815260040161073090611947565b60405180910390fd5b6107436000610d0d565b565b6000600160009054906101000a900473ffffffffffffffffffffffffffffffffffffffff16905090565b7f000000000000000000000000000000000000000000000000000000000000000073ffffffffffffffffffffffffffffffffffffffff163373ffffffffffffffffffffffffffffffffffffffff16146107fd576040517f08c379a00000000000000000000000000000000000000000000000000000000081526004016107f490611987565b60405180910390fd5b6108078282610dd3565b5050565b600160045461081a9190611ad9565b341461085b576040517f08c379a0000000000000000000000000000000000000000000000000000000008152600401610852906118e7565b60405180910390fd5b600a600560009054906101000a900463ffffffff1663ffffffff16106108b6576040517f08c379a00000000000000000000000000000000000000000000000000000000081526004016108ad90611887565b60405180910390fd5b600060405180604001604052808381526020013373ffffffffffffffffffffffffffffffffffffffff168152509050806007600560009054906101000a900463ffffffff1663ffffffff16600a8110610938577f4e487b7100000000000000000000000000000000000000000000000000000000600052603260045260246000fd5b600202016000820151816000015560208201518160010160006101000a81548173ffffffffffffffffffffffffffffffffffffffff021916908373ffffffffffffffffffffffffffffffffffffffff1602179055509050506001600560008282829054906101000a900463ffffffff166109b29190611a6e565b92506101000a81548163ffffffff021916908363ffffffff1602179055505050565b6000600560009054906101000a900463ffffffff1663ffffffff16905090565b60025481565b610a0381610e1a565b50565b60035481565b610a14610cd3565b73ffffffffffffffffffffffffffffffffffffffff16610a32610745565b73ffffffffffffffffffffffffffffffffffffffff1614610a88576040517f08c379a0000000000000000000000000000000000000000000000000000000008152600401610a7f90611947565b60405180910390fd5b600073ffffffffffffffffffffffffffffffffffffffff168173ffffffffffffffffffffffffffffffffffffffff161415610af8576040517f08c379a0000000000000000000000000000000000000000000000000000000008152600401610aef906118c7565b60405180910390fd5b610b0181610d0d565b50565b600067016345785d8a00007f000000000000000000000000000000000000000000000000000000000000000073ffffffffffffffffffffffffffffffffffffffff166370a08231306040518263ffffffff1660e01b8152600401610b6891906117a5565b60206040518083038186803b158015610b8057600080fd5b505afa158015610b94573d6000803e3d6000fd5b505050506040513d601f19601f82011682018060405250810190610bb89190611545565b1015610bf9576040517f08c379a0000000000000000000000000000000000000000000000000000000008152600401610bf090611927565b60405180910390fd5b600254421015610c3e576040517f08c379a0000000000000000000000000000000000000000000000000000000008152600401610c3590611967565b60405180910390fd5b6000600560009054906101000a900463ffffffff1663ffffffff1611610c99576040517f08c379a0000000000000000000000000000000000000000000000000000000008152600401610c90906118a7565b60405180910390fd5b610cce7f6c3699283bda56ad74f6b855546325b68d482e983852a7a82979cc4807b641f460001b67016345785d8a0000611257565b905090565b600033905090565b600081831115610cf8578183610cf19190611b33565b9050610d07565b8282610d049190611b33565b90505b92915050565b6000600160009054906101000a900473ffffffffffffffffffffffffffffffffffffffff16905081600160006101000a81548173ffffffffffffffffffffffffffffffffffffffff021916908373ffffffffffffffffffffffffffffffffffffffff1602179055508173ffffffffffffffffffffffffffffffffffffffff168173ffffffffffffffffffffffffffffffffffffffff167f8be0079c531659141344cd1fd0a4f28419497f9722a3daafe3b4186f6b6457e060405160405180910390a35050565b60006103e882610de39190611c59565b9050610dee81610e1a565b603c600354610dfd9190611ad9565b60026000828254610e0e9190611a18565b92505081905550505050565b6000600560009054906101000a900463ffffffff169050600060076000600a8110610e6e577f4e487b7100000000000000000000000000000000000000000000000000000000600052603260045260246000fd5b60020201604051806040016040529081600082015481526020016001820160009054906101000a900473ffffffffffffffffffffffffffffffffffffffff1673ffffffffffffffffffffffffffffffffffffffff1673ffffffffffffffffffffffffffffffffffffffff168152505090506000610eef826000015185610cdb565b905060076000600a8110610f2c577f4e487b7100000000000000000000000000000000000000000000000000000000600052603260045260246000fd5b600202016000808201600090556001820160006101000a81549073ffffffffffffffffffffffffffffffffffffffff021916905550506000600190505b8363ffffffff168110156111455781610fc3600783600a8110610fb5577f4e487b7100000000000000000000000000000000000000000000000000000000600052603260045260246000fd5b600202016000015487610cdb565b10156110c257600781600a8110611003577f4e487b7100000000000000000000000000000000000000000000000000000000600052603260045260246000fd5b60020201604051806040016040529081600082015481526020016001820160009054906101000a900473ffffffffffffffffffffffffffffffffffffffff1673ffffffffffffffffffffffffffffffffffffffff1673ffffffffffffffffffffffffffffffffffffffff168152505092506110bf600782600a81106110b1577f4e487b7100000000000000000000000000000000000000000000000000000000600052603260045260246000fd5b600202016000015486610cdb565b91505b600781600a81106110fc577f4e487b7100000000000000000000000000000000000000000000000000000000600052603260045260246000fd5b600202016000808201600090556001820160006101000a81549073ffffffffffffffffffffffffffffffffffffffff02191690555050808061113d90611bfc565b915050610f69565b508263ffffffff166064600160045461115e9190611ad9565b6111689190611aa8565b6111729190611ad9565b6006600061117e610745565b73ffffffffffffffffffffffffffffffffffffffff1673ffffffffffffffffffffffffffffffffffffffff168152602001908152602001600020819055508263ffffffff16606460636004546111d49190611ad9565b6111de9190611aa8565b6111e89190611ad9565b60066000846020015173ffffffffffffffffffffffffffffffffffffffff1673ffffffffffffffffffffffffffffffffffffffff168152602001908152602001600020819055506000600560006101000a81548163ffffffff021916908363ffffffff16021790555050505050565b60007f000000000000000000000000000000000000000000000000000000000000000073ffffffffffffffffffffffffffffffffffffffff16634000aea07f0000000000000000000000000000000000000000000000000000000000000000848660006040516020016112cb929190611819565b6040516020818303038152906040526040518463ffffffff1660e01b81526004016112f8939291906117c0565b602060405180830381600087803b15801561131257600080fd5b505af1158015611326573d6000803e3d6000fd5b505050506040513d601f19601f8201168201806040525081019061134a91906114b7565b50600061136c84600030600080898152602001908152602001600020546113b6565b905060016000808681526020019081526020016000205461138d9190611a18565b600080868152602001908152602001600020819055506113ad84826113f2565b91505092915050565b6000848484846040516020016113cf9493929190611842565b6040516020818303038152906040528051906020012060001c9050949350505050565b60008282604051602001611407929190611779565b60405160208183030381529060405280519060200120905092915050565b60008135905061143481611e90565b92915050565b60008151905061144981611ea7565b92915050565b60008135905061145e81611ebe565b92915050565b60008135905061147381611ed5565b92915050565b60008151905061148881611ed5565b92915050565b6000602082840312156114a057600080fd5b60006114ae84828501611425565b91505092915050565b6000602082840312156114c957600080fd5b60006114d78482850161143a565b91505092915050565b600080604083850312156114f357600080fd5b60006115018582860161144f565b925050602061151285828601611464565b9150509250929050565b60006020828403121561152e57600080fd5b600061153c84828501611464565b91505092915050565b60006020828403121561155757600080fd5b600061156584828501611479565b91505092915050565b6000806040838503121561158157600080fd5b600061158f85828601611464565b92505060206115a085828601611464565b9150509250929050565b6115b381611b67565b82525050565b6115c281611b85565b82525050565b6115d96115d482611b85565b611c45565b82525050565b60006115ea826119eb565b6115f481856119f6565b9350611604818560208601611bc9565b61160d81611ce8565b840191505092915050565b6000611625601083611a07565b915061163082611cf9565b602082019050919050565b6000611648601183611a07565b915061165382611d22565b602082019050919050565b600061166b602683611a07565b915061167682611d4b565b604082019050919050565b600061168e601883611a07565b915061169982611d9a565b602082019050919050565b60006116b1601283611a07565b91506116bc82611dc3565b602082019050919050565b60006116d4600f83611a07565b91506116df82611dec565b602082019050919050565b60006116f7602083611a07565b915061170282611e15565b602082019050919050565b600061171a601b83611a07565b915061172582611e3e565b602082019050919050565b600061173d601f83611a07565b915061174882611e67565b602082019050919050565b61175c81611baf565b82525050565b61177361176e82611baf565b611c4f565b82525050565b600061178582856115c8565b6020820191506117958284611762565b6020820191508190509392505050565b60006020820190506117ba60008301846115aa565b92915050565b60006060820190506117d560008301866115aa565b6117e26020830185611753565b81810360408301526117f481846115df565b9050949350505050565b600060208201905061181360008301846115b9565b92915050565b600060408201905061182e60008301856115b9565b61183b6020830184611753565b9392505050565b600060808201905061185760008301876115b9565b6118646020830186611753565b61187160408301856115aa565b61187e6060830184611753565b95945050505050565b600060208201905081810360008301526118a081611618565b9050919050565b600060208201905081810360008301526118c08161163b565b9050919050565b600060208201905081810360008301526118e08161165e565b9050919050565b6000602082019050818103600083015261190081611681565b9050919050565b60006020820190508181036000830152611920816116a4565b9050919050565b60006020820190508181036000830152611940816116c7565b9050919050565b60006020820190508181036000830152611960816116ea565b9050919050565b600060208201905081810360008301526119808161170d565b9050919050565b600060208201905081810360008301526119a081611730565b9050919050565b60006020820190506119bc6000830184611753565b92915050565b60006040820190506119d76000830185611753565b6119e460208301846115aa565b9392505050565b600081519050919050565b600082825260208201905092915050565b600082825260208201905092915050565b6000611a2382611baf565b9150611a2e83611baf565b9250827fffffffffffffffffffffffffffffffffffffffffffffffffffffffffffffffff03821115611a6357611a62611c8a565b5b828201905092915050565b6000611a7982611bb9565b9150611a8483611bb9565b92508263ffffffff03821115611a9d57611a9c611c8a565b5b828201905092915050565b6000611ab382611baf565b9150611abe83611baf565b925082611ace57611acd611cb9565b5b828204905092915050565b6000611ae482611baf565b9150611aef83611baf565b9250817fffffffffffffffffffffffffffffffffffffffffffffffffffffffffffffffff0483118215151615611b2857611b27611c8a565b5b828202905092915050565b6000611b3e82611baf565b9150611b4983611baf565b925082821015611b5c57611b5b611c8a565b5b828203905092915050565b6000611b7282611b8f565b9050919050565b60008115159050919050565b6000819050919050565b600073ffffffffffffffffffffffffffffffffffffffff82169050919050565b6000819050919050565b600063ffffffff82169050919050565b60005b83811015611be7578082015181840152602081019050611bcc565b83811115611bf6576000848401525b50505050565b6000611c0782611baf565b91507fffffffffffffffffffffffffffffffffffffffffffffffffffffffffffffffff821415611c3a57611c39611c8a565b5b600182019050919050565b6000819050919050565b6000819050919050565b6000611c6482611baf565b9150611c6f83611baf565b925082611c7f57611c7e611cb9565b5b828206905092915050565b7f4e487b7100000000000000000000000000000000000000000000000000000000600052601160045260246000fd5b7f4e487b7100000000000000000000000000000000000000000000000000000000600052601260045260246000fd5b6000601f19601f8301169050919050565b7f313020706c6179657273206c696d697400000000000000000000000000000000600082015250565b7f6e6f20706c6179657273206a6f696e6564000000000000000000000000000000600082015250565b7f4f776e61626c653a206e6577206f776e657220697320746865207a65726f206160008201527f6464726573730000000000000000000000000000000000000000000000000000602082015250565b7f6e6f7420656e6f75676820657468657220746f20706c61790000000000000000600082015250565b7f6e6f2065746820746f2077697468647261770000000000000000000000000000600082015250565b7f4e6f7420656e6f756768204c494e4b0000000000000000000000000000000000600082015250565b7f4f776e61626c653a2063616c6c6572206973206e6f7420746865206f776e6572600082015250565b7f73657373696f6e2074696d65206973206e6f7420737461727465640000000000600082015250565b7f4f6e6c7920565246436f6f7264696e61746f722063616e2066756c66696c6c00600082015250565b611e9981611b67565b8114611ea457600080fd5b50565b611eb081611b79565b8114611ebb57600080fd5b50565b611ec781611b85565b8114611ed257600080fd5b50565b611ede81611baf565b8114611ee957600080fd5b5056fea26469706673582212203a4eec67cd7b1acd4b318b5881df4d1a45b72e02a965eeff03e3fe637de5aab164736f6c63430008040033",
  "linkReferences": {},
  "deployedLinkReferences": {}
}